:100000000C9462000C94A1040C94CE040C948A000D
:100010000C948A000C948A000C948A000C948A0038
:100020000C948A000C948A000C948A000C948A0028
:100030000C948A000C948A000C948A000C948A0018
:100040000C94FB040C948A000C9429070C946C0704
:100050000C948A000C948A000C948A000C948A00F8
:100060000C948A000C948A00000000070002010032
:100070000003040600000000000000000102040864
:100080001020408001020408102001020408102002
:10009000040404040404040402020202020203032E
:1000A00003030303000000002300260029000000D2
:1000B0000000250028002B0000000000240027007D
:1000C0002A00280811241FBECFEFD8E0DEBFCDBF25
:1000D00011E0A0E0B1E0E2E6F1E102C005900D928E
:1000E000A231B107D9F712E0A2E1B1E001C01D923F
:1000F000A73AB107E1F710E0C4ECD0E004C02297C2
:10010000FE010E94A208C23CD107C9F70E948406E2
:100110000C94AF080C94000040E855E260E070E0F9
:100120008DEF91E00E94A70720E436E040E062E016
:100130008FE00E94330361E089E00C94D903FF92C1
:100140000F931F93CF93DF938DEF91E00E94910661
:10015000892B09F441C08DEF91E00E94BE0690ED1D
:10016000980F9A3060F420919801220F922F990FE6
:10017000990F920F9053980F909398012DC08C3245
:1001800089F4E0915501E23450F481E08E0F8093C0
:100190005501F0E0EA5AFE4F809198018083109259
:1001A00098011AC08337C1F4809399014091550199
:1001B0004093540150E066E571E082E191E00E94D5
:1001C000A608109255011092980182E4E6E5F1E04C
:1001D000DF011D928A95E9F70E948302882371F15D
:1001E0008091E8019091E901892B41F5F090A301FC
:1001F00061E089E00E94120480910001882329F0C7
:1002000060E28DEF91E00E94BE056091A2016F71E6
:1002100070E04AE050E08DEF91E00E947C0604EA35
:1002200011E0E8018C2F801B8F1540F18DEF91E0DC
:100230000E94C50560E089E00E9412048091990146
:10024000882381F161E089E00E9412048091990184
:10025000813611F480E201C080E04091540162E1F6
:1002600071E00E9426031092990160E089E0DF911D
:10027000CF911F910F91FF900C9412048091000177
:10028000882311F060E201C06CE28DEF91E00E94E2
:10029000BE05699170E04AE050E08DEF91E00E9468
:1002A0007C06C0CFDF91CF911F910F91FF900895F1
:1002B0008627682F62956827062E669566956025C5
:1002C000062E669560256770082E892F669507941F
:1002D0006795902D86270694679590258627089523
:1002E0002CB521602CBD25B141E050E060E070E00C
:1002F0000090010104C0440F551F661F771F0A9428
:10030000D2F74095422345B99EBD0DB407FEFDCFFF
:100310002EB530E0322F22278EBD0DB407FEFDCF63
:100320009EB585B141E050E060E070E000900101D1
:1003300004C0440F551F661F771F0A94D2F7842B01
:1003400085B98CB58E7F8CBDA901492BCA01089552
:10035000CF9380E090E00E9470018091EA018530A7
:1003600091F580E090EB0E947001682F8091EB0185
:10037000811104C09091EE01911174C0E091EB01E4
:1003800081E08E0F8093EB01F0E0EF55FE4F60832C
:100390008091E8019091E9010E9458019093E90150
:1003A0008093E8018091A3012091EB0190E00496F5
:1003B00030E0821793070CF460C08091EB01873422
:1003C00008F05BC05FC08091EA0187FF1AC0E0912E
:1003D000A3018091EA0191E0980F9093EA01ED5F0B
:1003E000E80FF0E0EF55FE4FC0818091E801909159
:1003F000E9016C2F0E9458019093E9018093E80174
:100400002DC08091EA0191E0980F9093EA0183302A
:1004100001F154F48823B9F08130F9F48091E801B6
:100420009091E901C92F1AC0893059F08A30A9F496
:10043000C091EE019091A3018EEF891B8093EA0198
:100440000DC0CDE20BC08091E8019091E901C82F69
:1004500005C08DE092E80E947001CAEA8C2F90E0FE
:1004600098540DC0E091EB0181E08E0F8093EB0179
:10047000F0E0EF55FE4F908381CF8DE092E8CF9171
:100480000C947001CF91089525B181E090E0A0E037
:10049000B0E0AC01BD010090010104C0440F551F44
:1004A000661F771F0A94D2F7242B25B924B1009038
:1004B000010104C0880F991FAA1FBB1F0A94D2F71D
:1004C000282B24B961E08AE00E94120461E08AE0EE
:1004D0000E94D90361E08BE00E94D90360E08CE0C8
:1004E0000E94D90361E08DE00E94D90380E58CBDB4
:1004F0008DB581608DBD60E082E00E94D90361E02E
:1005000082E00C9412048091EA01853051F58091CB
:10051000A3012091EB0190E0049630E0821793074D
:1005200024F08091EB018734E0F084E08093EA01CD
:100530008091A301833430F081E090E09093E90151
:100540008093E8018091A20186FF3AC09091EF016B
:10055000892F8F718F31A1F18091A20189278F712D
:1005600079F18091EA01843049F580919C018823DA
:1005700051F08093A3011092A2011092A10183E097
:100580008093EB0104C01092A3011092EB018FEF56
:100590009FEF9093E9018093E8016091EE0166235B
:1005A00031F00E9458019093E9018093E80185E0C1
:1005B0008093EA018DED92E80E94700180E0089539
:1005C0008091E8019091E901892B49F4E0919A0129
:1005D000F0919B01309719F080E009950BC08FEFE7
:1005E0009FEFDC0180939D0190939E01A0939F015A
:1005F000B093A00181E0089586FD05C0807E9091B2
:10060000EF019F71890F8093A201E0919A01F0910F
:100610009B01309711F081E009958FEF9FEF909348
:10062000E9018093E8018091E8019091E9016091EE
:10063000EE010E9458019093E9018093E80186E061
:100640008093EA018DE392E80C947001CF93C82F58
:100650004093A30150E084EA91E00E94A6088C2F09
:10066000CF910C94FC02CF93C62F8093EF0140935F
:10067000EE013093ED012093EC010E94440280E0F2
:1006800090E00E94700185E092E80E94700180E095
:1006900098EB0E94700182E00E944804892B19F4B3
:1006A00080E090E0F6CF20E1C29FC0011124876C6A
:1006B00090680E9470018091EC019091ED0190563C
:1006C0000E94700186E096EC0E94700182EA94E933
:1006D0000E9470018CEA92EC0E947001C091EE01C0
:1006E000CC2341F083E89AEC0E9470018C2F90E0BB
:1006F0009E6C06C08BE89AEC0E9470018DE29EEC25
:100700000E94700183E894EC0E94700180E598E9F2
:100710000E94700187E79CEC0E94700180E090EEDF
:100720000E94700180E098EC0E94700189E490ECD6
:100730000E94700184E08093EA018091EF018F7143
:1007400041F040E050E068EA71E080E00E9471040E
:1007500003C080E00E9491048091EF01CF91089541
:10076000833081F028F4813099F08230A1F008952F
:100770008630A9F08730B9F08430D1F480918000C0
:100780008F7D03C0809180008F77809380000895D3
:1007900084B58F7702C084B58F7D84BD0895809124
:1007A000B0008F7703C08091B0008F7D8093B00040
:1007B0000895CF93DF9390E0FC01E458FF4F24911C
:1007C000FC01E057FF4F8491882349F190E0880FA6
:1007D000991FFC01E854FF4FA591B49182559F4F9A
:1007E000FC01C591D4919FB7611108C0F8948C9118
:1007F000209582238C93888182230AC0623051F431
:10080000F8948C91322F309583238C938881822B9E
:10081000888304C0F8948C91822B8C939FBFDF91C6
:10082000CF9108950F931F93CF93DF931F92CDB76E
:10083000DEB7282F30E0F901E859FF4F8491F90124
:10084000E458FF4F1491F901E057FF4F0491002342
:10085000C9F0882321F069830E94B0036981E02FE9
:10086000F0E0EE0FFF1FE255FF4FA591B4919FB747
:10087000F8948C91611103C01095812301C0812BE4
:100880008C939FBF0F90DF91CF911F910F9108958F
:10089000CF93DF93282F30E0F901E859FF4F84917F
:1008A000F901E458FF4FD491F901E057FF4FC4918B
:1008B000CC2391F081110E94B003EC2FF0E0EE0FF9
:1008C000FF1FEC55FF4FA591B4912C912D2381E092
:1008D00090E021F480E002C080E090E0DF91CF91D1
:1008E00008958230E8F4E82FF0E0EE0FFF1FE051AA
:1008F000FE4F71836083813041F0809169008C7F6D
:10090000842B80936900E89A089580916900440FD0
:10091000551F440F551F837F842B80936900E99AEC
:100920000895823068F4813011F0E89801C0E998A8
:10093000E82FF0E0EE0FFF1FE051FE4F1182108212
:1009400008951F920F920FB60F9211242F933F9389
:100950004F935F936F937F938F939F93AF93BF93C7
:10096000EF93FF938091F0019091F101892B29F091
:10097000E091F001F091F1010995FF91EF91BF91A4
:10098000AF919F918F917F916F915F914F913F9127
:100990002F910F900FBE0F901F9018951F920F92DE
:1009A0000FB60F9211242F933F934F935F936F9342
:1009B0007F938F939F93AF93BF93EF93FF93809118
:1009C000F2019091F301892B29F0E091F201F0916D
:1009D000F3010995FF91EF91BF91AF919F918F9195
:1009E0007F916F915F914F913F912F910F900FBE2B
:1009F0000F901F9018951F920F920FB60F9211240F
:100A00002F933F938F939F93AF93BF938091F50163
:100A10009091F601A091F701B091F8013091F401A5
:100A200023E0230F2D3720F40196A11DB11D05C031
:100A300026E8230F0296A11DB11D2093F401809397
:100A4000F5019093F601A093F701B093F80180911E
:100A5000F9019091FA01A091FB01B091FC0101967E
:100A6000A11DB11D8093F9019093FA01A093FB01A0
:100A7000B093FC01BF91AF919F918F913F912F91C6
:100A80000F900FBE0F901F901895789484B58260D8
:100A900084BD84B5816084BD85B5826085BD85B522
:100AA000816085BDEEE6F0E0808181608083E1E8D1
:100AB000F0E0108280818260808380818160808309
:100AC000E0E8F0E0808181608083E1EBF0E080810C
:100AD00084608083E0EBF0E0808181608083EAE7DE
:100AE000F0E0808184608083808182608083808167
:100AF000816080838081806880831092C100089526
:100B0000CF92DF92EF92FF920F931F93CF93DF93D9
:100B10006C017A01EB01E60EF71E00E010E0CE1545
:100B2000DF0561F06991D601ED91FC910190F081B2
:100B3000E02DC6010995080F191FF1CFC801DF91FB
:100B4000CF911F910F91FF90EF90DF90CF9008957C
:100B50006115710581F0DB010D900020E9F7AD0111
:100B600041505109461B570BDC01ED91FC9102806D
:100B7000F381E02D099480E090E00895DC01ED918F
:100B8000FC910190F081E02D09940F931F93CF9376
:100B9000DF93EC016DE00E94BE058C016AE0CE019E
:100BA0000E94BE05800F911FDF91CF911F910F9181
:100BB00008958F929F92AF92BF92CF92DF92EF9261
:100BC000FF920F931F93CF93DF93CDB7DEB7A1971B
:100BD0000FB6F894DEBF0FBECDBF7C01C42EE52F4B
:100BE000CB01D22E19A221E02D1510F02AE0D22E31
:100BF0008E010F5D1F4F8D2C912CA12CB12C6C2DD3
:100C00007E2FA50194010E947E088C2DD29E801912
:100C10001124015011098A3014F4805D01C0895CEF
:100C2000F8018083211531054105510521F0C22EBF
:100C3000E32FCA01E4CFB801C7010E94A805A1961D
:100C40000FB6F894DEBF0FBECDBFDF91CF911F91DD
:100C50000F91FF90EF90DF90CF90BF90AF909F905B
:100C60008F900895CF92DF92EF92FF920F931F9390
:100C7000CF93DF93EC016A017B012115310579F4F3
:100C8000E881F9810190F081E02D642FDF91CF910F
:100C90001F910F91FF90EF90DF90CF9009942A3031
:100CA0003105E9F477FF1AC06DE20E94BE058C01A0
:100CB00044275527BA014C195D096E097F092AE0BE
:100CC000CE010E94D905800F911FDF91CF911F9116
:100CD0000F91FF90EF90DF90CF9008952AE0B70139
:100CE000A601CE01DF91CF911F910F91FF90EF9060
:100CF000DF90CF900C94D9059A01AB01662757FD80
:100D00006095762F0C9432060E9445050E948C0057
:100D1000C3E6D7E00E949F002097E1F30E9463079B
:100D2000F9CFFC0124853585F901E05CFF4F808116
:100D30009181F901EE5BFF4F20813181821B930B82
:100D40008F7399270895FC0184859585FC01E05CEB
:100D5000FF4F40815181FC01EE5BFF4F20813181CB
:100D60004217530741F00190F081E02DE80FF91F81
:100D7000808190E008958FEF9FEF0895FC018485B6
:100D80009585FC01E05CFF4F40815181FC01EE5BE9
:100D9000FF4F208131814217530779F0A081B18143
:100DA000A80FB91F8C91208131812F5F3F4F2F7386
:100DB00033273183208390E008958FEF9FEF0895CC
:100DC000FC0181A1882329F0A489B5898C9186FF33
:100DD000FBCF11A20895CF93DF93FC0126853785C1
:100DE000D901A05CBF4F8D919C91119701968F7393
:100DF0009927E901CE5BDF4F488159818417950718
:100E0000D9F30D90BC91A02DA20FB31F6C93A685B2
:100E1000B785A05CBF4F11969C938E93A689B78926
:100E20002C9181E090E0078C02C0880F991F0A94F2
:100E3000E2F7282B2C9381E081A30488F589E02D2B
:100E400080818064808381E090E0DF91CF9108957C
:100E500008951F920F920FB60F9211242F933F9374
:100E60004F938F939F93EF93FF938091C00082FDE8
:100E70001CC04091C6008091A3029091A4020196EB
:100E80008F7399272091A5023091A60282179307AC
:100E900071F0E091A302F091A402ED59FD4F40835F
:100EA0009093A4028093A30202C08091C600FF9198
:100EB000EF919F918F914F913F912F910F900FBE86
:100EC0000F901F9018958DEF91E00E949106892B4D
:100ED00011F00C94280708951F920F920FB60F92ED
:100EE00011242F933F938F939F93EF93FF93209120
:100EF0005F02309160028091610290916202281736
:100F0000390731F48091C1008F7D8093C10014C0F6
:100F1000E0916102F0916202E15EFD4F20818091DB
:100F200061029091620201968F73992790936202F9
:100F3000809361022093C600FF91EF919F918F9162
:100F40003F912F910F900FBE0F901F901895CF9249
:100F5000DF92EF92FF92CF93DF93EC016A017B0166
:100F6000411581EE580761057105F9F0EC89FD899D
:100F700081E090E008A002C0880F991F0A94E2F770
:100F8000808360E079E08DE390E0A70196010E9404
:100F90007E082150310941095109569547953795E9
:100FA0002795211580E1380798F0EC89FD8910829A
:100FB00060E874E88EE190E0A70196010E947E0847
:100FC0002150310941095109569547953795279583
:100FD000E889F9893083EA89FB89208319A2EE899F
:100FE000FF89408181E090E09C010C8C02C0220FBF
:100FF000331F0A94E2F7422B4083EE89FF89408138
:101000009C010D8C02C0220F331F0A94E2F7422B81
:101010004083EE89FF8940819C010E8C02C0220F23
:10102000331F0A94E2F7422B4083EE89FF89208127
:101030000F8C02C0880F991F0A94E2F780958223D3
:101040008083DF91CF91FF90EF90DF90CF90089554
:10105000109200021092FF0188EE93E0A0E0B0E051
:101060008093010290930202A0930302B0930402C2
:1010700086E091E09093FE018093FD0183E692E08B
:1010800090930A02809309028FE192E090930C0200
:1010900080930B0285EC90E090930E0280930D02FA
:1010A00084EC90E09093100280930F0280EC90E02B
:1010B000909312028093110281EC90E090931402BD
:1010C0008093130282EC90E09093160280931502B5
:1010D00086EC90E0909318028093170284E080934E
:1010E000190283E080931A0287E080931B0285E057
:1010F00080931C0281E080931D020895A1E21A2EC4
:10110000AA1BBB1BFD010DC0AA1FBB1FEE1FFF1FAB
:10111000A217B307E407F50720F0A21BB30BE40BFB
:10112000F50B661F771F881F991F1A9469F7609542
:101130007095809590959B01AC01BD01CF010895FC
:10114000EE0FFF1F0590F491E02D0994FB01DC01E7
:1011500002C001900D9241505040D8F70895F89484
:02116000FFCFBF
:10116200010200000000EB0680059106BE06A30600
:02117200E00695
:00000001FF
